:1000000009C018951895189518951895189518956C
:10001000189518958FE98DBFCEE9E6E84E2EDD27BD
:100020005D2EA89584B7082E877F84BF88E1992725
:1000300081BD91BDEEE3F0E0A0E6B0E088278D93AE
:100040003197E9F7662480E886B980E087B989E0CE
:1000500087BB70E078BB479A73ED71BD7894A89523
:1000600075B7777C706375BF8895C09A379A07B16A
:100070000C7F026007B98ED0A3E68D939C933798CE
:10008000C098A3E60D911C91A5E64D915C91041BCF
:10009000150BA7E60D931C93A3E68D919C91A5E605
:1000A0008D939C93A7E60D911C91023350E01507A8
:1000B00014F009F001C001C020D0A3E60D911C91FD
:1000C000003253E0150714F009F001C00AC0009196
:1000D00061000F3F08F004C0A1E68C918F5F8C9304
:1000E00003C080E08093610000916100083C10F043
:1000F00009F001C001C024D0B2CF81E0809360003C
:10010000009160000A3010F009F014C0C39AA8955D
:1001100075B7777C706375BF8895C398A89575B7D8
:10012000777C706375BF8895A0E68C918F5F8C9308
:1001300008F4E6CF8FEF93E0A5E68D939C930895A6
:1001400071EF71BDA89575B7777C706375BF8895A1
:1001500073ED71BDA2E68C918F5F8C93009162006C
:10016000083009F00BC0C39AA89575B7777C706307
:1001700075BF8895C39880E0809362000895F894D5
:10018000FFCF3197F1F70895689462F80895E894E5
:1001900062F80895369A3699FECF369A3699FECF90
:0601A00084B195B1089541
:00000001FF
